{
  "contractName": "Executions",
  "abi": [
    {
      "constant": true,
      "inputs": [
        {
          "name": "",
          "type": "uint256"
        }
      ],
      "name": "executions",
      "outputs": [
        {
          "name": "executionId",
          "type": "uint256"
        },
        {
          "name": "service",
          "type": "bytes"
        },
        {
          "name": "task",
          "type": "bytes"
        },
        {
          "name": "state",
          "type": "uint8"
        },
        {
          "name": "inputs",
          "type": "bytes"
        },
        {
          "name": "outputs",
          "type": "bytes"
        },
        {
          "name": "verified",
          "type": "bool"
        },
        {
          "name": "submitter",
          "type": "address"
        },
        {
          "name": "consensus",
          "type": "uint256"
        }
      ],
      "payable": false,
      "stateMutability": "view",
      "type": "function"
    },
    {
      "anonymous": false,
      "inputs": [
        {
          "indexed": true,
          "name": "executionId",
          "type": "uint256"
        },
        {
          "indexed": false,
          "name": "service",
          "type": "bytes"
        },
        {
          "indexed": false,
          "name": "task",
          "type": "bytes"
        },
        {
          "indexed": false,
          "name": "inputs",
          "type": "bytes"
        }
      ],
      "name": "Created",
      "type": "event"
    },
    {
      "anonymous": false,
      "inputs": [
        {
          "indexed": true,
          "name": "executionId",
          "type": "uint256"
        },
        {
          "indexed": false,
          "name": "service",
          "type": "bytes"
        },
        {
          "indexed": false,
          "name": "task",
          "type": "bytes"
        },
        {
          "indexed": false,
          "name": "outputs",
          "type": "bytes"
        }
      ],
      "name": "Submitted",
      "type": "event"
    },
    {
      "anonymous": false,
      "inputs": [
        {
          "indexed": true,
          "name": "executionId",
          "type": "uint256"
        },
        {
          "indexed": false,
          "name": "service",
          "type": "bytes"
        },
        {
          "indexed": false,
          "name": "task",
          "type": "bytes"
        }
      ],
      "name": "Verified",
      "type": "event"
    },
    {
      "constant": true,
      "inputs": [],
      "name": "executionsLength",
      "outputs": [
        {
          "name": "length",
          "type": "uint256"
        }
      ],
      "payable": false,
      "stateMutability": "view",
      "type": "function"
    },
    {
      "constant": true,
      "inputs": [
        {
          "name": "executionId",
          "type": "uint256"
        }
      ],
      "name": "executionsVerifiersLength",
      "outputs": [
        {
          "name": "length",
          "type": "uint256"
        }
      ],
      "payable": false,
      "stateMutability": "view",
      "type": "function"
    },
    {
      "constant": true,
      "inputs": [
        {
          "name": "executionId",
          "type": "uint256"
        },
        {
          "name": "index",
          "type": "uint256"
        }
      ],
      "name": "executionsVerifier",
      "outputs": [
        {
          "name": "verifier",
          "type": "address"
        }
      ],
      "payable": false,
      "stateMutability": "view",
      "type": "function"
    },
    {
      "constant": true,
      "inputs": [
        {
          "name": "executionId",
          "type": "uint256"
        }
      ],
      "name": "executionsVerifiersAgreeLength",
      "outputs": [
        {
          "name": "length",
          "type": "uint256"
        }
      ],
      "payable": false,
      "stateMutability": "view",
      "type": "function"
    },
    {
      "constant": true,
      "inputs": [
        {
          "name": "executionId",
          "type": "uint256"
        },
        {
          "name": "index",
          "type": "uint256"
        }
      ],
      "name": "executionsVerifiesAgree",
      "outputs": [
        {
          "name": "verifier",
          "type": "address"
        }
      ],
      "payable": false,
      "stateMutability": "view",
      "type": "function"
    },
    {
      "constant": true,
      "inputs": [
        {
          "name": "executionId",
          "type": "uint256"
        }
      ],
      "name": "executionsVerifiersDisagreeLength",
      "outputs": [
        {
          "name": "length",
          "type": "uint256"
        }
      ],
      "payable": false,
      "stateMutability": "view",
      "type": "function"
    },
    {
      "constant": true,
      "inputs": [
        {
          "name": "executionId",
          "type": "uint256"
        },
        {
          "name": "index",
          "type": "uint256"
        }
      ],
      "name": "executionsVerifierDisagree",
      "outputs": [
        {
          "name": "verifier",
          "type": "address"
        }
      ],
      "payable": false,
      "stateMutability": "view",
      "type": "function"
    },
    {
      "constant": false,
      "inputs": [
        {
          "name": "service",
          "type": "bytes"
        },
        {
          "name": "task",
          "type": "bytes"
        },
        {
          "name": "inputs",
          "type": "bytes"
        },
        {
          "name": "submitter",
          "type": "address"
        },
        {
          "name": "verifiers",
          "type": "address[]"
        },
        {
          "name": "consensus",
          "type": "uint256"
        }
      ],
      "name": "create",
      "outputs": [],
      "payable": false,
      "stateMutability": "nonpayable",
      "type": "function"
    },
    {
      "constant": false,
      "inputs": [
        {
          "name": "executionId",
          "type": "uint256"
        },
        {
          "name": "outputs",
          "type": "bytes"
        }
      ],
      "name": "submit",
      "outputs": [],
      "payable": false,
      "stateMutability": "nonpayable",
      "type": "function"
    },
    {
      "constant": false,
      "inputs": [
        {
          "name": "executionId",
          "type": "uint256"
        },
        {
          "name": "valid",
          "type": "bool"
        }
      ],
      "name": "verify",
      "outputs": [],
      "payable": false,
      "stateMutability": "nonpayable",
      "type": "function"
    }
  ],
  "bytecode": "0x608060405234801561001057600080fd5b50611b02806100206000396000f3fe608060405234801561001057600080fd5b50600436106100c6576000357c010000000000000000000000000000000000000000000000000000000090048063859032f31161008e578063859032f3146103a3578063ab1a6eee1461041b578063d1a2eab21461045d578063d3846eb4146104e0578063f1c3e3a714610558578063f76c922914610576576100c6565b806313933d77146100cb578063261b02b01461014357806335f15099146102e55780633e7cb0d31461032757806364d6af7514610361575b600080fd5b610101600480360360408110156100e157600080fd5b8101908080359060200190929190803590602001909291905050506107c2565b604051808273ffffffffffffffffffffffffffffffffffffffff1673ffffffffffffffffffffffffffffffffffffffff16815260200191505060405180910390f35b6102e3600480360360c081101561015957600080fd5b810190808035906020019064010000000081111561017657600080fd5b82018360208201111561018857600080fd5b803590602001918460018302840111640100000000831117156101aa57600080fd5b9091929391929390803590602001906401000000008111156101cb57600080fd5b8201836020820111156101dd57600080fd5b803590602001918460018302840111640100000000831117156101ff57600080fd5b90919293919293908035906020019064010000000081111561022057600080fd5b82018360208201111561023257600080fd5b8035906020019184600183028401116401000000008311171561025457600080fd5b9091929391929390803573ffffffffffffffffffffffffffffffffffffffff1690602001909291908035906020019064010000000081111561029557600080fd5b8201836020820111156102a757600080fd5b803590602001918460208302840111640100000000831117156102c957600080fd5b909192939192939080359060200190929190505050610823565b005b610311600480360360208110156102fb57600080fd5b8101908080359060200190929190505050610c9e565b6040518082815260200191505060405180910390f35b61035f6004803603604081101561033d57600080fd5b8101908080359060200190929190803515159060200190929190505050610cca565b005b61038d6004803603602081101561037757600080fd5b81019080803590602001909291905050506110ea565b6040518082815260200191505060405180910390f35b6103d9600480360360408110156103b957600080fd5b810190808035906020019092919080359060200190929190505050611116565b604051808273ffffffffffffffffffffffffffffffffffffffff1673ffffffffffffffffffffffffffffffffffffffff16815260200191505060405180910390f35b6104476004803603602081101561043157600080fd5b8101908080359060200190929190505050611177565b6040518082815260200191505060405180910390f35b6104de6004803603604081101561047357600080fd5b81019080803590602001909291908035906020019064010000000081111561049a57600080fd5b8201836020820111156104ac57600080fd5b803590602001918460018302840111640100000000831117156104ce57600080fd5b90919293919293905050506111a3565b005b610516600480360360408110156104f657600080fd5b8101908080359060200190929190803590602001909291905050506114ad565b604051808273ffffffffffffffffffffffffffffffffffffffff1673ffffffffffffffffffffffffffffffffffffffff16815260200191505060405180910390f35b61056061150e565b6040518082815260200191505060405180910390f35b6105a26004803603602081101561058c57600080fd5b810190808035906020019092919050505061151a565b604051808a815260200180602001806020018960028111156105c057fe5b60ff1681526020018060200180602001881515151581526020018773ffffffffffffffffffffffffffffffffffffffff1673ffffffffffffffffffffffffffffffffffffffff16815260200186815260200185810385528d818151815260200191508051906020019080838360005b8381101561064a57808201518184015260208101905061062f565b50505050905090810190601f1680156106775780820380516001836020036101000a031916815260200191505b5085810384528c818151815260200191508051906020019080838360005b838110156106b0578082015181840152602081019050610695565b50505050905090810190601f1680156106dd5780820380516001836020036101000a031916815260200191505b5085810383528a818151815260200191508051906020019080838360005b838110156107165780820151818401526020810190506106fb565b50505050905090810190601f1680156107435780820380516001836020036101000a031916815260200191505b50858103825289818151815260200191508051906020019080838360005b8381101561077c578082015181840152602081019050610761565b50505050905090810190601f1680156107a95780820380516001836020036101000a031916815260200191505b509d505050505050505050505050505060405180910390f35b600080838154811015156107d257fe5b90600052602060002090600b0201600701828154811015156107f057fe5b9060005260206000200160009054906101000a900473ffffffffffffffffffffffffffffffffffffffff16905092915050565b808383905010151515610881576040517f08c379a0000000000000000000000000000000000000000000000000000000008152600401808060200182810382526033815260200180611a816033913960400191505060405180910390fd5b60008080549050905060606000610180604051908101604052808481526020018e8e8080601f016020809104026020016040519081016040528093929190818152602001838380828437600081840152601f19601f8201169050808301925050505050505081526020018c8c8080601f016020809104026020016040519081016040528093929190818152602001838380828437600081840152601f19601f8201169050808301925050505050505081526020016000600281111561094257fe5b81526020018a8a8080601f016020809104026020016040519081016040528093929190818152602001838380828437600081840152601f19601f820116905080830192505050505050508152602001602060405190810160405280600081525081526020016000151581526020018873ffffffffffffffffffffffffffffffffffffffff168152602001878780806020026020016040519081016040528093929190818152602001838360200280828437600081840152601f19601f820116905080830192505050505050508152602001838152602001838152602001858152509080600181540180825580915050906001820390600052602060002090600b020160009091929091909150600082015181600001556020820151816001019080519060200190610a74929190611811565b506040820151816002019080519060200190610a91929190611811565b5060608201518160030160006101000a81548160ff02191690836002811115610ab657fe5b02179055506080820151816004019080519060200190610ad7929190611811565b5060a0820151816005019080519060200190610af4929190611811565b5060c08201518160060160006101000a81548160ff02191690831515021790555060e08201518160060160016101000a81548173ffffffffffffffffffffffffffffffffffffffff021916908373ffffffffffffffffffffffffffffffffffffffff160217905550610100820151816007019080519060200190610b79929190611891565b50610120820151816008019080519060200190610b97929190611891565b50610140820151816009019080519060200190610bb5929190611891565b5061016082015181600a0155505050817ff29c0e90cd90da11a1ce36ab439ed744911ba113d4c81abd844b2e9ecbf535678d8d8d8d8d8d6040518080602001806020018060200184810384528a8a82818152602001925080828437600081840152601f19601f8201169050808301925050508481038352888882818152602001925080828437600081840152601f19601f8201169050808301925050508481038252868682818152602001925080828437600081840152601f19601f820116905080830192505050995050505050505050505060405180910390a2505050505050505050505050565b60008082815481101515610cae57fe5b90600052602060002090600b0201600701805490509050919050565b60008083815481101515610cda57fe5b90600052602060002090600b0201905060016002811115610cf757fe5b8160030160009054906101000a900460ff166002811115610d1457fe5b141515610d6c576040517f08c379a0000000000000000000000000000000000000000000000000000000008152600401808060200182810382526023815260200180611ab46023913960400191505060405180910390fd5b600080905060008090505b6001836007018054905003811015610e0e573373ffffffffffffffffffffffffffffffffffffffff168360070182815481101515610db157fe5b9060005260206000200160009054906101000a900473ffffffffffffffffffffffffffffffffffffffff1673ffffffffffffffffffffffffffffffffffffffff161415610e015760019150610e0e565b8080600101915050610d77565b50801515610e67576040517f08c379a000000000000000000000000000000000000000000000000000000000815260040180806020018281038252602e815260200180611a53602e913960400191505060405180910390fd5b8215610eda57816008013390806001815401808255809150509060018203906000526020600020016000909192909190916101000a81548173ffffffffffffffffffffffffffffffffffffffff021916908373ffffffffffffffffffffffffffffffffffffffff16021790555050610f43565b816009013390806001815401808255809150509060018203906000526020600020016000909192909190916101000a81548173ffffffffffffffffffffffffffffffffffffffff021916908373ffffffffffffffffffffffffffffffffffffffff160217905550505b81600a0154826008018054905014156110e45760018260060160006101000a81548160ff02191690831515021790555060028260030160006101000a81548160ff02191690836002811115610f9457fe5b0217905550837f67c14bfe8a2e3c5a199c7036d91737ca00fb879fcdffa0fba31ccf3c0718667283600101846002016040518080602001806020018381038352858181546001816001161561010002031660029004815260200191508054600181600116156101000203166002900480156110505780601f1061102557610100808354040283529160200191611050565b820191906000526020600020905b81548152906001019060200180831161103357829003601f168201915b50508381038252848181546001816001161561010002031660029004815260200191508054600181600116156101000203166002900480156110d35780601f106110a8576101008083540402835291602001916110d3565b820191906000526020600020905b8154815290600101906020018083116110b657829003601f168201915b505094505050505060405180910390a25b50505050565b600080828154811015156110fa57fe5b90600052602060002090600b0201600801805490509050919050565b6000808381548110151561112657fe5b90600052602060002090600b02016008018281548110151561114457fe5b9060005260206000200160009054906101000a900473ffffffffffffffffffffffffffffffffffffffff16905092915050565b6000808281548110151561118757fe5b90600052602060002090600b0201600901805490509050919050565b600080848154811015156111b357fe5b90600052602060002090600b02019050600060028111156111d057fe5b8160030160009054906101000a900460ff1660028111156111ed57fe5b141515611245576040517f08c379a0000000000000000000000000000000000000000000000000000000008152600401808060200182810382526021815260200180611a046021913960400191505060405180910390fd5b3373ffffffffffffffffffffffffffffffffffffffff168160060160019054906101000a900473ffffffffffffffffffffffffffffffffffffffff1673ffffffffffffffffffffffffffffffffffffffff161415156112ef576040517f08c379a000000000000000000000000000000000000000000000000000000000815260040180806020018281038252602e815260200180611a25602e913960400191505060405180910390fd5b828282600501919061130292919061191b565b5060018160030160006101000a81548160ff0219169083600281111561132457fe5b0217905550837f8796a437514096c7cf2c657bf344fb0dbc18ee68905ffce1e6f9fd2307be6a3482600101836002018686604051808060200180602001806020018481038452888181546001816001161561010002031660029004815260200191508054600181600116156101000203166002900480156113e65780601f106113bb576101008083540402835291602001916113e6565b820191906000526020600020905b8154815290600101906020018083116113c957829003601f168201915b50508481038352878181546001816001161561010002031660029004815260200191508054600181600116156101000203166002900480156114695780601f1061143e57610100808354040283529160200191611469565b820191906000526020600020905b81548152906001019060200180831161144c57829003601f168201915b50508481038252868682818152602001925080828437600081840152601f19601f82011690508083019250505097505050505050505060405180910390a250505050565b600080838154811015156114bd57fe5b90600052602060002090600b0201600901828154811015156114db57fe5b9060005260206000200160009054906101000a900473ffffffffffffffffffffffffffffffffffffffff16905092915050565b60008080549050905090565b60008181548110151561152957fe5b90600052602060002090600b0201600091509050806000015490806001018054600181600116156101000203166002900480601f0160208091040260200160405190810160405280929190818152602001828054600181600116156101000203166002900480156115db5780601f106115b0576101008083540402835291602001916115db565b820191906000526020600020905b8154815290600101906020018083116115be57829003601f168201915b505050505090806002018054600181600116156101000203166002900480601f0160208091040260200160405190810160405280929190818152602001828054600181600116156101000203166002900480156116795780601f1061164e57610100808354040283529160200191611679565b820191906000526020600020905b81548152906001019060200180831161165c57829003601f168201915b5050505050908060030160009054906101000a900460ff1690806004018054600181600116156101000203166002900480601f01602080910402602001604051908101604052809291908181526020018280546001816001161561010002031660029004801561172a5780601f106116ff5761010080835404028352916020019161172a565b820191906000526020600020905b81548152906001019060200180831161170d57829003601f168201915b505050505090806005018054600181600116156101000203166002900480601f0160208091040260200160405190810160405280929190818152602001828054600181600116156101000203166002900480156117c85780601f1061179d576101008083540402835291602001916117c8565b820191906000526020600020905b8154815290600101906020018083116117ab57829003601f168201915b5050505050908060060160009054906101000a900460ff16908060060160019054906101000a900473ffffffffffffffffffffffffffffffffffffffff169080600a0154905089565b828054600181600116156101000203166002900490600052602060002090601f016020900481019282601f1061185257805160ff1916838001178555611880565b82800160010185558215611880579182015b8281111561187f578251825591602001919060010190611864565b5b50905061188d919061199b565b5090565b82805482825590600052602060002090810192821561190a579160200282015b828111156119095782518260006101000a81548173ffffffffffffffffffffffffffffffffffffffff021916908373ffffffffffffffffffffffffffffffffffffffff160217905550916020019190600101906118b1565b5b50905061191791906119c0565b5090565b828054600181600116156101000203166002900490600052602060002090601f016020900481019282601f1061195c57803560ff191683800117855561198a565b8280016001018555821561198a579182015b8281111561198957823582559160200191906001019061196e565b5b509050611997919061199b565b5090565b6119bd91905b808211156119b95760008160009055506001016119a1565b5090565b90565b611a0091905b808211156119fc57600081816101000a81549073ffffffffffffffffffffffffffffffffffffffff0219169055506001016119c6565b5090565b9056fe457865637574696f6e206973206e6f7420696e206372656174656420737461746553656e646572206973206e6f7420616c6c6f77656420746f207375626d6974207468697320657865637574696f6e53656e646572206973206e6f7420616c6c6f77656420746f20766572696679207468697320657865637574696f6e4e6f7420656e6f7567682076657269666965727320636f6d706172656420746f20726571756972656420636f6e73656e737573457865637574696f6e206973206e6f7420696e207375626d6974746564207374617465a165627a7a72305820490b99c8c09b45a88a30e77fc05677262e9c3a914791d3dc0335e09948c43de80029",
  "source": "pragma solidity >=0.5.0 <0.6.0;\n\ncontract Executions {\n\n  /**\n    Enums\n   */\n\n  enum State { Created, Submitted, Verified }\n\n  /**\n    Structures\n   */\n\n  struct Execution {\n    uint256 executionId;\n    bytes service;\n    bytes task;\n    State state;\n    bytes inputs;\n    bytes outputs;\n    bool verified;\n    address submitter;\n    address[] verifiers;\n    address[] verifiersAgree;\n    address[] verifiersDisagree;\n    uint256 consensus;\n  }\n\n  /**\n    State variables\n   */\n\n  Execution[] public executions;\n\n  /**\n    Events\n   */\n\n  event Created(\n    uint256 indexed executionId,\n    bytes service,\n    bytes task,\n    bytes inputs\n  );\n\n  event Submitted(\n    uint256 indexed executionId,\n    bytes service,\n    bytes task,\n    bytes outputs\n  );\n\n  event Verified(\n    uint256 indexed executionId,\n    bytes service,\n    bytes task\n  );\n\n  /**\n    Views\n   */\n\n  function executionsLength()\n    external view\n    returns (uint256 length)\n  {\n    return executions.length;\n  }\n\n  function executionsVerifiersLength(\n    uint256 executionId\n  )\n    external view\n    returns (uint256 length)\n  {\n    return executions[executionId].verifiers.length;\n  }\n\n  function executionsVerifier(\n    uint256 executionId,\n    uint256 index\n  )\n    external view\n    returns (address verifier)\n  {\n    return executions[executionId].verifiers[index];\n  }\n\n  function executionsVerifiersAgreeLength(\n    uint256 executionId\n  )\n    external view\n    returns (uint256 length)\n  {\n    return executions[executionId].verifiersAgree.length;\n  }\n\n  function executionsVerifiesAgree(\n    uint256 executionId,\n    uint256 index\n  )\n    external view\n    returns (address verifier)\n  {\n    return executions[executionId].verifiersAgree[index];\n  }\n\n  function executionsVerifiersDisagreeLength(\n    uint256 executionId\n  )\n    external view\n    returns (uint256 length)\n  {\n    return executions[executionId].verifiersDisagree.length;\n  }\n\n  function executionsVerifierDisagree(\n    uint256 executionId,\n    uint256 index\n  )\n    external view\n    returns (address verifier)\n  {\n    return executions[executionId].verifiersDisagree[index];\n  }\n\n  /**\n    Functions\n   */\n\n  function create(\n    bytes calldata service,\n    bytes calldata task,\n    bytes calldata inputs,\n    address submitter,\n    address[] calldata verifiers,\n    uint256 consensus\n  ) external {\n    require(verifiers.length >= consensus, \"Not enough verifiers compared to required consensus\");\n    uint256 executionId = executions.length;\n    address[] memory emptyAddress;\n    executions.push(Execution(\n      executionId,\n      service,\n      task,\n      State.Created,\n      inputs,\n      \"\",\n      false,\n      submitter,\n      verifiers,\n      emptyAddress,\n      emptyAddress,\n      consensus\n    ));\n    emit Created(executionId, service, task, inputs);\n  }\n\n  // TODO: require a signature from the submitter based on the execution's inputs.\n  function submit(\n    uint256 executionId,\n    bytes calldata outputs\n  ) external {\n    Execution storage exec = executions[executionId];\n    require(exec.state == State.Created, \"Execution is not in created state\");\n    require(exec.submitter == msg.sender, \"Sender is not allowed to submit this execution\");\n    exec.outputs = outputs;\n    exec.state = State.Submitted;\n    emit Submitted(executionId, exec.service, exec.task, outputs);\n  }\n\n  // TODO: require a signature from the verifier based on the execution's outputs and maybe the submitter's address or signature.\n  function verify(\n    uint256 executionId,\n    bool valid\n  ) external {\n    Execution storage exec = executions[executionId];\n    require(exec.state == State.Submitted, \"Execution is not in submitted state\");\n    bool allowed = false;\n    for (uint i = 0; i<exec.verifiers.length-1; i++){\n      if(exec.verifiers[i] == msg.sender) {\n        allowed = true;\n        break;\n      }\n    }\n    require(allowed, \"Sender is not allowed to verify this execution\");\n    if (valid) {\n      exec.verifiersAgree.push(msg.sender);\n    } else {\n      exec.verifiersDisagree.push(msg.sender);\n    }\n    if (exec.verifiersAgree.length == exec.consensus) {\n      exec.verified = true;\n      exec.state = State.Verified;\n      emit Verified(executionId, exec.service, exec.task);\n    }\n  }\n}\n",
  "sourcePath": "/Users/nico/Developments/MESG/execution/contracts/Execution.sol",
  "compiler": {
    "name": "solc",
    "version": "0.5.2+commit.1df8f40c.Emscripten.clang"
  },
  "schemaVersion": "3.0.1",
  "updatedAt": "2019-04-12T13:42:02.209Z",
  "devdoc": {
    "methods": {}
  },
  "userdoc": {
    "methods": {
      "create(bytes,bytes,bytes,address,address[],uint256)": {
        "notice": "Functions"
      },
      "executionsLength()": {
        "notice": "Views"
      }
    }
  }
}